{
  "address": "0x50923639dE68DacA54Ea4Cac976471489c88e83a",
  "_format": "hh-sol-artifact-1",
  "contractName": "RentalFactory",
  "sourceName": "contracts/RentalFactory.sol",
  "abi": [
    {
      "inputs": [],
      "stateMutability": "nonpayable",
      "type": "constructor"
    },
    {
      "anonymous": false,
      "inputs": [
        {
          "indexed": true,
          "internalType": "address",
          "name": "contractAddress",
          "type": "address"
        },
        {
          "indexed": true,
          "internalType": "address",
          "name": "landlord",
          "type": "address"
        },
        {
          "indexed": true,
          "internalType": "address",
          "name": "tenant",
          "type": "address"
        },
        {
          "indexed": false,
          "internalType": "string",
          "name": "propertyId",
          "type": "string"
        },
        {
          "indexed": false,
          "internalType": "uint256",
          "name": "rentAmount",
          "type": "uint256"
        }
      ],
      "name": "AgreementCreated",
      "type": "event"
    },
    {
      "inputs": [
        {
          "internalType": "uint256",
          "name": "",
          "type": "uint256"
        }
      ],
      "name": "allAgreements",
      "outputs": [
        {
          "internalType": "address",
          "name": "contractAddress",
          "type": "address"
        },
        {
          "internalType": "address",
          "name": "landlord",
          "type": "address"
        },
        {
          "internalType": "address",
          "name": "tenant",
          "type": "address"
        },
        {
          "internalType": "string",
          "name": "propertyId",
          "type": "string"
        },
        {
          "internalType": "string",
          "name": "propertyTitle",
          "type": "string"
        },
        {
          "internalType": "uint256",
          "name": "rentAmount",
          "type": "uint256"
        },
        {
          "internalType": "uint256",
          "name": "depositAmount",
          "type": "uint256"
        },
        {
          "internalType": "uint256",
          "name": "createdAt",
          "type": "uint256"
        },
        {
          "internalType": "bool",
          "name": "isActive",
          "type": "bool"
        }
      ],
      "stateMutability": "view",
      "type": "function"
    },
    {
      "inputs": [
        {
          "internalType": "address",
          "name": "_landlord",
          "type": "address"
        },
        {
          "internalType": "address",
          "name": "_tenant",
          "type": "address"
        },
        {
          "internalType": "uint256",
          "name": "_rentAmount",
          "type": "uint256"
        },
        {
          "internalType": "uint256",
          "name": "_depositAmount",
          "type": "uint256"
        },
        {
          "internalType": "uint256",
          "name": "_durationDays",
          "type": "uint256"
        },
        {
          "internalType": "uint256",
          "name": "_rentDueDay",
          "type": "uint256"
        },
        {
          "internalType": "string",
          "name": "_propertyId",
          "type": "string"
        },
        {
          "internalType": "string",
          "name": "_propertyTitle",
          "type": "string"
        }
      ],
      "name": "createAgreement",
      "outputs": [
        {
          "internalType": "address",
          "name": "",
          "type": "address"
        }
      ],
      "stateMutability": "nonpayable",
      "type": "function"
    },
    {
      "inputs": [],
      "name": "getAllAgreements",
      "outputs": [
        {
          "components": [
            {
              "internalType": "address",
              "name": "contractAddress",
              "type": "address"
            },
            {
              "internalType": "address",
              "name": "landlord",
              "type": "address"
            },
            {
              "internalType": "address",
              "name": "tenant",
              "type": "address"
            },
            {
              "internalType": "string",
              "name": "propertyId",
              "type": "string"
            },
            {
              "internalType": "string",
              "name": "propertyTitle",
              "type": "string"
            },
            {
              "internalType": "uint256",
              "name": "rentAmount",
              "type": "uint256"
            },
            {
              "internalType": "uint256",
              "name": "depositAmount",
              "type": "uint256"
            },
            {
              "internalType": "uint256",
              "name": "createdAt",
              "type": "uint256"
            },
            {
              "internalType": "bool",
              "name": "isActive",
              "type": "bool"
            }
          ],
          "internalType": "struct RentalFactory.AgreementInfo[]",
          "name": "",
          "type": "tuple[]"
        }
      ],
      "stateMutability": "view",
      "type": "function"
    },
    {
      "inputs": [
        {
          "internalType": "address",
          "name": "_landlord",
          "type": "address"
        }
      ],
      "name": "getLandlordAgreements",
      "outputs": [
        {
          "internalType": "address[]",
          "name": "",
          "type": "address[]"
        }
      ],
      "stateMutability": "view",
      "type": "function"
    },
    {
      "inputs": [
        {
          "internalType": "string",
          "name": "_propertyId",
          "type": "string"
        }
      ],
      "name": "getPropertyAgreement",
      "outputs": [
        {
          "internalType": "address",
          "name": "",
          "type": "address"
        }
      ],
      "stateMutability": "view",
      "type": "function"
    },
    {
      "inputs": [
        {
          "internalType": "address",
          "name": "_tenant",
          "type": "address"
        }
      ],
      "name": "getTenantAgreements",
      "outputs": [
        {
          "internalType": "address[]",
          "name": "",
          "type": "address[]"
        }
      ],
      "stateMutability": "view",
      "type": "function"
    },
    {
      "inputs": [],
      "name": "getTotalAgreements",
      "outputs": [
        {
          "internalType": "uint256",
          "name": "",
          "type": "uint256"
        }
      ],
      "stateMutability": "view",
      "type": "function"
    },
    {
      "inputs": [
        {
          "internalType": "address",
          "name": "",
          "type": "address"
        },
        {
          "internalType": "uint256",
          "name": "",
          "type": "uint256"
        }
      ],
      "name": "landlordAgreements",
      "outputs": [
        {
          "internalType": "address",
          "name": "",
          "type": "address"
        }
      ],
      "stateMutability": "view",
      "type": "function"
    },
    {
      "inputs": [],
      "name": "owner",
      "outputs": [
        {
          "internalType": "address",
          "name": "",
          "type": "address"
        }
      ],
      "stateMutability": "view",
      "type": "function"
    },
    {
      "inputs": [
        {
          "internalType": "string",
          "name": "",
          "type": "string"
        }
      ],
      "name": "propertyAgreement",
      "outputs": [
        {
          "internalType": "address",
          "name": "",
          "type": "address"
        }
      ],
      "stateMutability": "view",
      "type": "function"
    },
    {
      "inputs": [
        {
          "internalType": "address",
          "name": "",
          "type": "address"
        },
        {
          "internalType": "uint256",
          "name": "",
          "type": "uint256"
        }
      ],
      "name": "tenantAgreements",
      "outputs": [
        {
          "internalType": "address",
          "name": "",
          "type": "address"
        }
      ],
      "stateMutability": "view",
      "type": "function"
    }
  ],
  "bytecode": "0x608060405234801561001057600080fd5b50336000806101000a81548173ffffffffffffffffffffffffffffffffffffffff021916908373ffffffffffffffffffffffffffffffffffffffff1602179055506145b6806100606000396000f3fe60806040523480156200001157600080fd5b5060043610620000b85760003560e01c80638a0b66a2116200007b5780638a0b66a214620001bf5780638aed078d14620001f55780638da5cb5b146200022b57806395c14b54146200024d5780639e6fffec1462000283578063bd933d1b14620002b957620000b8565b80631782207d14620000bd578063448db2f614620000fb5780634e6873c7146200013157806351fcb2f9146200015357806352e1bca91462000189575b600080fd5b620000db6004803603810190620000d5919062000f6c565b620002db565b604051620000f299989796959493929190620010ab565b60405180910390f35b62000119600480360381019062000113919062001189565b620004c7565b60405162000128919062001289565b60405180910390f35b6200013b62000596565b6040516200014a9190620014cf565b60405180910390f35b6200017160048036038101906200016b919062001644565b62000867565b6040516200018091906200174b565b60405180910390f35b620001a76004803603810190620001a1919062001768565b62000cde565b604051620001b691906200174b565b60405180910390f35b620001dd6004803603810190620001d79190620017b9565b62000d27565b604051620001ec91906200174b565b60405180910390f35b6200021360048036038101906200020d919062001189565b62000d76565b60405162000222919062001289565b60405180910390f35b6200023562000e45565b6040516200024491906200174b565b60405180910390f35b6200026b600480360381019062000265919062001768565b62000e69565b6040516200027a91906200174b565b60405180910390f35b620002a160048036038101906200029b9190620017b9565b62000eb3565b604051620002b091906200174b565b60405180910390f35b620002c362000f02565b604051620002d2919062001800565b60405180910390f35b60018181548110620002ec57600080fd5b90600052602060002090600902016000915090508060000160009054906101000a900473ffffffffffffffffffffffffffffffffffffffff16908060010160009054906101000a900473ffffffffffffffffffffffffffffffffffffffff16908060020160009054906101000a900473ffffffffffffffffffffffffffffffffffffffff169080600301805462000383906200184c565b80601f0160208091040260200160405190810160405280929190818152602001828054620003b1906200184c565b8015620004025780601f10620003d65761010080835404028352916020019162000402565b820191906000526020600020905b815481529060010190602001808311620003e457829003601f168201915b50505050509080600401805462000419906200184c565b80601f016020809104026020016040519081016040528092919081815260200182805462000447906200184c565b8015620004985780601f106200046c5761010080835404028352916020019162000498565b820191906000526020600020905b8154815290600101906020018083116200047a57829003601f168201915b5050505050908060050154908060060154908060070154908060080160009054906101000a900460ff16905089565b6060600260008373ffffffffffffffffffffffffffffffffffffffff1673ffffffffffffffffffffffffffffffffffffffff1681526020019081526020016000208054806020026020016040519081016040528092919081815260200182805480156200058a57602002820191906000526020600020905b8160009054906101000a900473ffffffffffffffffffffffffffffffffffffffff1673ffffffffffffffffffffffffffffffffffffffff16815260200190600101908083116200053f575b50505050509050919050565b60606001805480602002602001604051908101604052809291908181526020016000905b828210156200085e5783829060005260206000209060090201604051806101200160405290816000820160009054906101000a900473ffffffffffffffffffffffffffffffffffffffff1673ffffffffffffffffffffffffffffffffffffffff1673ffffffffffffffffffffffffffffffffffffffff1681526020016001820160009054906101000a900473ffffffffffffffffffffffffffffffffffffffff1673ffffffffffffffffffffffffffffffffffffffff1673ffffffffffffffffffffffffffffffffffffffff1681526020016002820160009054906101000a900473ffffffffffffffffffffffffffffffffffffffff1673ffffffffffffffffffffffffffffffffffffffff1673ffffffffffffffffffffffffffffffffffffffff168152602001600382018054620006f3906200184c565b80601f016020809104026020016040519081016040528092919081815260200182805462000721906200184c565b8015620007725780601f10620007465761010080835404028352916020019162000772565b820191906000526020600020905b8154815290600101906020018083116200075457829003601f168201915b505050505081526020016004820180546200078d906200184c565b80601f0160208091040260200160405190810160405280929190818152602001828054620007bb906200184c565b80156200080c5780601f10620007e0576101008083540402835291602001916200080c565b820191906000526020600020905b815481529060010190602001808311620007ee57829003601f168201915b505050505081526020016005820154815260200160068201548152602001600782015481526020016008820160009054906101000a900460ff16151515158152505081526020019060010190620005ba565b50505050905090565b6000808989898989898989604051620008809062000f0f565b6200089398979695949392919062001881565b604051809103906000f080158015620008b0573d6000803e3d6000fd5b509050600081905060016040518061012001604052808373ffffffffffffffffffffffffffffffffffffffff1681526020018d73ffffffffffffffffffffffffffffffffffffffff1681526020018c73ffffffffffffffffffffffffffffffffffffffff1681526020018781526020018681526020018b81526020018a815260200142815260200160011515815250908060018154018082558091505060019003906000526020600020906009020160009091909190915060008201518160000160006101000a81548173ffffffffffffffffffffffffffffffffffffffff021916908373ffffffffffffffffffffffffffffffffffffffff16021790555060208201518160010160006101000a81548173ffffffffffffffffffffffffffffffffffffffff021916908373ffffffffffffffffffffffffffffffffffffffff16021790555060408201518160020160006101000a81548173ffffffffffffffffffffffffffffffffffffffff021916908373ffffffffffffffffffffffffffffffffffffffff160217905550606082015181600301908162000a54919062001aef565b50608082015181600401908162000a6c919062001aef565b5060a0820151816005015560c0820151816006015560e082015181600701556101008201518160080160006101000a81548160ff0219169083151502179055505050600260008c73ffffffffffffffffffffffffffffffffffffffff1673ffffffffffffffffffffffffffffffffffffffff168152602001908152602001600020819080600181540180825580915050600190039060005260206000200160009091909190916101000a81548173ffffffffffffffffffffffffffffffffffffffff021916908373ffffffffffffffffffffffffffffffffffffffff160217905550600360008b73ffffffffffffffffffffffffffffffffffffffff1673ffffffffffffffffffffffffffffffffffffffff168152602001908152602001600020819080600181540180825580915050600190039060005260206000200160009091909190916101000a81548173ffffffffffffffffffffffffffffffffffffffff021916908373ffffffffffffffffffffffffffffffffffffffff1602179055508060048660405162000c01919062001c18565b908152602001604051809103902060006101000a81548173ffffffffffffffffffffffffffffffffffffffff021916908373ffffffffffffffffffffffffffffffffffffffff1602179055508973ffffffffffffffffffffffffffffffffffffffff168b73ffffffffffffffffffffffffffffffffffffffff168273ffffffffffffffffffffffffffffffffffffffff167f0cb719ff7a2809c9aac6b44835225fcdc5d5e185811485f65f078253f9f1d4dd888d60405162000cc592919062001c31565b60405180910390a4809250505098975050505050505050565b6004818051602081018201805184825260208301602085012081835280955050505050506000915054906101000a900473ffffffffffffffffffffffffffffffffffffffff1681565b6002602052816000526040600020818154811062000d4457600080fd5b906000526020600020016000915091509054906101000a900473ffffffffffffffffffffffffffffffffffffffff1681565b6060600360008373ffffffffffffffffffffffffffffffffffffffff1673ffffffffffffffffffffffffffffffffffffffff16815260200190815260200160002080548060200260200160405190810160405280929190818152602001828054801562000e3957602002820191906000526020600020905b8160009054906101000a900473ffffffffffffffffffffffffffffffffffffffff1673ffffffffffffffffffffffffffffffffffffffff168152602001906001019080831162000dee575b50505050509050919050565b60008054906101000a900473ffffffffffffffffffffffffffffffffffffffff1681565b600060048260405162000e7d919062001c18565b908152602001604051809103902060009054906101000a900473ffffffffffffffffffffffffffffffffffffffff169050919050565b6003602052816000526040600020818154811062000ed057600080fd5b906000526020600020016000915091509054906101000a900473ffffffffffffffffffffffffffffffffffffffff1681565b6000600180549050905090565b61291b8062001c6683390190565b6000604051905090565b600080fd5b600080fd5b6000819050919050565b62000f468162000f31565b811462000f5257600080fd5b50565b60008135905062000f668162000f3b565b92915050565b60006020828403121562000f855762000f8462000f27565b5b600062000f958482850162000f55565b91505092915050565b600073ffffffffffffffffffffffffffffffffffffffff82169050919050565b600062000fcb8262000f9e565b9050919050565b62000fdd8162000fbe565b82525050565b600081519050919050565b600082825260208201905092915050565b60005b838110156200101f57808201518184015260208101905062001002565b60008484015250505050565b6000601f19601f8301169050919050565b6000620010498262000fe3565b62001055818562000fee565b93506200106781856020860162000fff565b62001072816200102b565b840191505092915050565b620010888162000f31565b82525050565b60008115159050919050565b620010a5816200108e565b82525050565b600061012082019050620010c3600083018c62000fd2565b620010d2602083018b62000fd2565b620010e1604083018a62000fd2565b8181036060830152620010f581896200103c565b905081810360808301526200110b81886200103c565b90506200111c60a08301876200107d565b6200112b60c08301866200107d565b6200113a60e08301856200107d565b6200114a6101008301846200109a565b9a9950505050505050505050565b620011638162000fbe565b81146200116f57600080fd5b50565b600081359050620011838162001158565b92915050565b600060208284031215620011a257620011a162000f27565b5b6000620011b28482850162001172565b91505092915050565b600081519050919050565b600082825260208201905092915050565b6000819050602082019050919050565b620011f28162000fbe565b82525050565b6000620012068383620011e7565b60208301905092915050565b6000602082019050919050565b60006200122c82620011bb565b620012388185620011c6565b93506200124583620011d7565b8060005b838110156200127c578151620012608882620011f8565b97506200126d8362001212565b92505060018101905062001249565b5085935050505092915050565b60006020820190508181036000830152620012a581846200121f565b905092915050565b600081519050919050565b600082825260208201905092915050565b6000819050602082019050919050565b600082825260208201905092915050565b6000620012f78262000fe3565b620013038185620012d9565b93506200131581856020860162000fff565b62001320816200102b565b840191505092915050565b620013368162000f31565b82525050565b62001347816200108e565b82525050565b600061012083016000830151620013686000860182620011e7565b5060208301516200137d6020860182620011e7565b506040830151620013926040860182620011e7565b5060608301518482036060860152620013ac8282620012ea565b91505060808301518482036080860152620013c88282620012ea565b91505060a0830151620013df60a08601826200132b565b5060c0830151620013f460c08601826200132b565b5060e08301516200140960e08601826200132b565b50610100830151620014206101008601826200133c565b508091505092915050565b60006200143983836200134d565b905092915050565b6000602082019050919050565b60006200145b82620012ad565b620014678185620012b8565b9350836020820285016200147b85620012c9565b8060005b85811015620014bd57848403895281516200149b85826200142b565b9450620014a88362001441565b925060208a019950506001810190506200147f565b50829750879550505050505092915050565b60006020820190508181036000830152620014eb81846200144e565b905092915050565b600080fd5b600080fd5b7f4e487b7100000000000000000000000000000000000000000000000000000000600052604160045260246000fd5b62001537826200102b565b810181811067ffffffffffffffff82111715620015595762001558620014fd565b5b80604052505050565b60006200156e62000f1d565b90506200157c82826200152c565b919050565b600067ffffffffffffffff8211156200159f576200159e620014fd565b5b620015aa826200102b565b9050602081019050919050565b82818337600083830152505050565b6000620015dd620015d78462001581565b62001562565b905082815260208101848484011115620015fc57620015fb620014f8565b5b62001609848285620015b7565b509392505050565b600082601f830112620016295762001628620014f3565b5b81356200163b848260208601620015c6565b91505092915050565b600080600080600080600080610100898b03121562001668576200166762000f27565b5b6000620016788b828c0162001172565b98505060206200168b8b828c0162001172565b97505060406200169e8b828c0162000f55565b9650506060620016b18b828c0162000f55565b9550506080620016c48b828c0162000f55565b94505060a0620016d78b828c0162000f55565b93505060c089013567ffffffffffffffff811115620016fb57620016fa62000f2c565b5b620017098b828c0162001611565b92505060e089013567ffffffffffffffff8111156200172d576200172c62000f2c565b5b6200173b8b828c0162001611565b9150509295985092959890939650565b600060208201905062001762600083018462000fd2565b92915050565b60006020828403121562001781576200178062000f27565b5b600082013567ffffffffffffffff811115620017a257620017a162000f2c565b5b620017b08482850162001611565b91505092915050565b60008060408385031215620017d357620017d262000f27565b5b6000620017e38582860162001172565b9250506020620017f68582860162000f55565b9150509250929050565b60006020820190506200181760008301846200107d565b92915050565b7f4e487b7100000000000000000000000000000000000000000000000000000000600052602260045260246000fd5b600060028204905060018216806200186557607f821691505b6020821081036200187b576200187a6200181d565b5b50919050565b60006101008201905062001899600083018b62000fd2565b620018a8602083018a62000fd2565b620018b760408301896200107d565b620018c660608301886200107d565b620018d560808301876200107d565b620018e460a08301866200107d565b81810360c0830152620018f881856200103c565b905081810360e08301526200190e81846200103c565b90509998505050505050505050565b60008190508160005260206000209050919050565b60006020601f8301049050919050565b600082821b905092915050565b600060088302620019817fffffffffffffffffffffffffffffffffffffffffffffffffffffffffffffffff8262001942565b6200198d868362001942565b95508019841693508086168417925050509392505050565b6000819050919050565b6000620019d0620019ca620019c48462000f31565b620019a5565b62000f31565b9050919050565b6000819050919050565b620019ec83620019af565b62001a04620019fb82620019d7565b8484546200194f565b825550505050565b600090565b62001a1b62001a0c565b62001a28818484620019e1565b505050565b5b8181101562001a505762001a4460008262001a11565b60018101905062001a2e565b5050565b601f82111562001a9f5762001a69816200191d565b62001a748462001932565b8101602085101562001a84578190505b62001a9c62001a938562001932565b83018262001a2d565b50505b505050565b600082821c905092915050565b600062001ac46000198460080262001aa4565b1980831691505092915050565b600062001adf838362001ab1565b9150826002028217905092915050565b62001afa8262000fe3565b67ffffffffffffffff81111562001b165762001b15620014fd565b5b62001b2282546200184c565b62001b2f82828562001a54565b600060209050601f83116001811462001b67576000841562001b52578287015190505b62001b5e858262001ad1565b86555062001bce565b601f19841662001b77866200191d565b60005b8281101562001ba15784890151825560018201915060208501945060208101905062001b7a565b8683101562001bc1578489015162001bbd601f89168262001ab1565b8355505b6001600288020188555050505b505050505050565b600081905092915050565b600062001bee8262000fe3565b62001bfa818562001bd6565b935062001c0c81856020860162000fff565b80840191505092915050565b600062001c26828462001be1565b915081905092915050565b6000604082019050818103600083015262001c4d81856200103c565b905062001c5e60208301846200107d565b939250505056fe60806040523480156200001157600080fd5b506040516200291b3803806200291b8339818101604052810190620000379190620003c0565b876000806101000a81548173ffffffffffffffffffffffffffffffffffffffff021916908373ffffffffffffffffffffffffffffffffffffffff16021790555086600160006101000a81548173ffffffffffffffffffffffffffffffffffffffff021916908373ffffffffffffffffffffffffffffffffffffffff16021790555085600281905550846003819055504260048190555060008414620000ed576201518084620000e79190620004f6565b620000f0565b603c5b42620000fd919062000541565b6005819055508260068190555081600c90816200011b9190620007bd565b5080600d90816200012d9190620007bd565b506000600760006101000a81548160ff0219169083151502179055506000600760016101000a81548160ff0219169083151502179055506000600a60006101000a81548160ff0219169083151502179055505050505050505050620008a4565b6000604051905090565b600080fd5b600080fd5b600073ffffffffffffffffffffffffffffffffffffffff82169050919050565b6000620001ce82620001a1565b9050919050565b620001e081620001c1565b8114620001ec57600080fd5b50565b6000815190506200020081620001d5565b92915050565b6000819050919050565b6200021b8162000206565b81146200022757600080fd5b50565b6000815190506200023b8162000210565b92915050565b600080fd5b600080fd5b6000601f19601f8301169050919050565b7f4e487b7100000000000000000000000000000000000000000000000000000000600052604160045260246000fd5b62000296826200024b565b810181811067ffffffffffffffff82111715620002b857620002b76200025c565b5b80604052505050565b6000620002cd6200018d565b9050620002db82826200028b565b919050565b600067ffffffffffffffff821115620002fe57620002fd6200025c565b5b62000309826200024b565b9050602081019050919050565b60005b838110156200033657808201518184015260208101905062000319565b60008484015250505050565b6000620003596200035384620002e0565b620002c1565b90508281526020810184848401111562000378576200037762000246565b5b6200038584828562000316565b509392505050565b600082601f830112620003a557620003a462000241565b5b8151620003b784826020860162000342565b91505092915050565b600080600080600080600080610100898b031215620003e457620003e362000197565b5b6000620003f48b828c01620001ef565b9850506020620004078b828c01620001ef565b97505060406200041a8b828c016200022a565b96505060606200042d8b828c016200022a565b9550506080620004408b828c016200022a565b94505060a0620004538b828c016200022a565b93505060c089015167ffffffffffffffff8111156200047757620004766200019c565b5b620004858b828c016200038d565b92505060e089015167ffffffffffffffff811115620004a957620004a86200019c565b5b620004b78b828c016200038d565b9150509295985092959890939650565b7f4e487b7100000000000000000000000000000000000000000000000000000000600052601160045260246000fd5b6000620005038262000206565b9150620005108362000206565b9250828202620005208162000206565b915082820484148315176200053a5762000539620004c7565b5b5092915050565b60006200054e8262000206565b91506200055b8362000206565b9250828201905080821115620005765762000575620004c7565b5b92915050565b600081519050919050565b7f4e487b7100000000000000000000000000000000000000000000000000000000600052602260045260246000fd5b60006002820490506001821680620005cf57607f821691505b602082108103620005e557620005e462000587565b5b50919050565b60008190508160005260206000209050919050565b60006020601f8301049050919050565b600082821b905092915050565b6000600883026200064f7fffffffffffffffffffffffffffffffffffffffffffffffffffffffffffffffff8262000610565b6200065b868362000610565b95508019841693508086168417925050509392505050565b6000819050919050565b60006200069e62000698620006928462000206565b62000673565b62000206565b9050919050565b6000819050919050565b620006ba836200067d565b620006d2620006c982620006a5565b8484546200061d565b825550505050565b600090565b620006e9620006da565b620006f6818484620006af565b505050565b5b818110156200071e5762000712600082620006df565b600181019050620006fc565b5050565b601f8211156200076d576200073781620005eb565b620007428462000600565b8101602085101562000752578190505b6200076a620007618562000600565b830182620006fb565b50505b505050565b600082821c905092915050565b6000620007926000198460080262000772565b1980831691505092915050565b6000620007ad83836200077f565b9150826002028217905092915050565b620007c8826200057c565b67ffffffffffffffff811115620007e457620007e36200025c565b5b620007f08254620005b6565b620007fd82828562000722565b600060209050601f83116001811462000835576000841562000820578287015190505b6200082c85826200079f565b8655506200089c565b601f1984166200084586620005eb565b60005b828110156200086f5784890151825560018201915060208501945060208101905062000848565b868310156200088f57848901516200088b601f8916826200077f565b8355505b6001600288020188555050505b505050505050565b61206780620008b46000396000f3fe6080604052600436106101355760003560e01c806392c5466d116100ab578063c939329b1161006f578063c939329b146103b8578063dc1997ea146103c2578063e1d703e4146103ed578063ee0850e414610418578063ee7a3b8e14610443578063f8ef1e131461046e57610135565b806392c5466d146102fb5780639d3c7dc114610326578063a709c4fe14610351578063adf077911461035b578063b4bd77841461038657610135565b80634200dd71116100fd5780634200dd71146102115780635724ed88146102285780636f9fb98a14610253578063725a3b4b1461027e5780637bf6c104146102a757806389e1e82a146102d257610135565b8063031f1d181461013a578063073fcefc146101655780630c5b3eb11461019057806322f3e2d4146101bb578063419759f5146101e6575b600080fd5b34801561014657600080fd5b5061014f610499565b60405161015c9190611436565b60405180910390f35b34801561017157600080fd5b5061017a610527565b6040516101879190611471565b60405180910390f35b34801561019c57600080fd5b506101a561052d565b6040516101b291906114a7565b60405180910390f35b3480156101c757600080fd5b506101d0610540565b6040516101dd91906114a7565b60405180910390f35b3480156101f257600080fd5b506101fb610553565b6040516102089190611471565b60405180910390f35b34801561021d57600080fd5b50610226610559565b005b34801561023457600080fd5b5061023d61089b565b60405161024a9190611471565b60405180910390f35b34801561025f57600080fd5b506102686108a1565b6040516102759190611471565b60405180910390f35b34801561028a57600080fd5b506102a560048036038101906102a0919061160b565b6108a9565b005b3480156102b357600080fd5b506102bc610aac565b6040516102c99190611436565b60405180910390f35b3480156102de57600080fd5b506102f960048036038101906102f49190611680565b610b3a565b005b34801561030757600080fd5b50610310610d6c565b60405161031d91906114a7565b60405180910390f35b34801561033257600080fd5b5061033b610d7f565b6040516103489190611471565b60405180910390f35b610359610d85565b005b34801561036757600080fd5b50610370611038565b60405161037d91906116ee565b60405180910390f35b34801561039257600080fd5b5061039b61105e565b6040516103af989796959493929190611709565b60405180910390f35b6103c06110f4565b005b3480156103ce57600080fd5b506103d76112e2565b6040516103e491906116ee565b60405180910390f35b3480156103f957600080fd5b50610402611306565b60405161040f9190611471565b60405180910390f35b34801561042457600080fd5b5061042d61130c565b60405161043a9190611471565b60405180910390f35b34801561044f57600080fd5b50610458611312565b6040516104659190611436565b60405180910390f35b34801561047a57600080fd5b506104836113a0565b6040516104909190611471565b60405180910390f35b600d80546104a6906117b6565b80601f01602080910402602001604051908101604052809291908181526020018280546104d2906117b6565b801561051f5780601f106104f45761010080835404028352916020019161051f565b820191906000526020600020905b81548152906001019060200180831161050257829003601f168201915b505050505081565b60045481565b600760019054906101000a900460ff1681565b600760009054906101000a900460ff1681565b60035481565b600760009054906101000a900460ff166105a8576040517f08c379a000000000000000000000000000000000000000000000000000000000815260040161059f90611833565b60405180910390fd5b600a60009054906101000a900460ff16156105f8576040517f08c379a00000000000000000000000000000000000000000000000000000000081526004016105ef9061189f565b60405180910390fd5b60008054906101000a900473ffffffffffffffffffffffffffffffffffffffff1673ffffffffffffffffffffffffffffffffffffffff163373ffffffffffffffffffffffffffffffffffffffff16148061069f5750600160009054906101000a900473ffffffffffffffffffffffffffffffffffffffff1673ffffffffffffffffffffffffffffffffffffffff163373ffffffffffffffffffffffffffffffffffffffff16145b6106de576040517f08c379a00000000000000000000000000000000000000000000000000000000081526004016106d59061190b565b60405180910390fd5b600554421015610723576040517f08c379a000000000000000000000000000000000000000000000000000000000815260040161071a90611977565b60405180910390fd5b6000600760006101000a81548160ff021916908315150217905550600760019054906101000a900460ff1661084b576001600760016101000a81548160ff021916908315150217905550600160009054906101000a900473ffffffffffffffffffffffffffffffffffffffff1673ffffffffffffffffffffffffffffffffffffffff166108fc6003549081150290604051600060405180830381858888f193505050501580156107d7573d6000803e3d6000fd5b50600160009054906101000a900473ffffffffffffffffffffffffffffffffffffffff1673ffffffffffffffffffffffffffffffffffffffff167fa09244c122a83074363635dc89ce0098166c2f74827960ff64a7c8e6ad1c57a26003546040516108429190611471565b60405180910390a25b3373ffffffffffffffffffffffffffffffffffffffff167fbcc1fc93b3c0fc48ab621cac6b87c3cf66f0272e74b0b88f8bb5adb3521ade33426040516108919190611471565b60405180910390a2565b60055481565b600047905090565b600760009054906101000a900460ff166108f8576040517f08c379a00000000000000000000000000000000000000000000000000000000081526004016108ef90611833565b60405180910390fd5b60008054906101000a900473ffffffffffffffffffffffffffffffffffffffff1673ffffffffffffffffffffffffffffffffffffffff163373ffffffffffffffffffffffffffffffffffffffff16148061099f5750600160009054906101000a900473ffffffffffffffffffffffffffffffffffffffff1673ffffffffffffffffffffffffffffffffffffffff163373ffffffffffffffffffffffffffffffffffffffff16145b6109de576040517f08c379a00000000000000000000000000000000000000000000000000000000081526004016109d59061190b565b60405180910390fd5b600a60009054906101000a900460ff1615610a2e576040517f08c379a0000000000000000000000000000000000000000000000000000000008152600401610a25906119e3565b60405180910390fd5b6001600a60006101000a81548160ff02191690831515021790555080600b9081610a589190611baf565b503373ffffffffffffffffffffffffffffffffffffffff167fd4882c6b71dfbb8df0a01fa4cd97676f243a56dd525df6b891b2e1700e514e898242604051610aa1929190611c81565b60405180910390a250565b600b8054610ab9906117b6565b80601f0160208091040260200160405190810160405280929190818152602001828054610ae5906117b6565b8015610b325780601f10610b0757610100808354040283529160200191610b32565b820191906000526020600020905b815481529060010190602001808311610b1557829003601f168201915b505050505081565b60008054906101000a900473ffffffffffffffffffffffffffffffffffffffff1673ffffffffffffffffffffffffffffffffffffffff163373ffffffffffffffffffffffffffffffffffffffff1614610bc8576040517f08c379a0000000000000000000000000000000000000000000000000000000008152600401610bbf90611cfd565b60405180910390fd5b600a60009054906101000a900460ff16610c17576040517f08c379a0000000000000000000000000000000000000000000000000000000008152600401610c0e90611d69565b60405180910390fd5b6000600a60006101000a81548160ff02191690831515021790555060405180602001604052806000815250600b9081610c509190611baf565b50808015610c6b5750600760019054906101000a900460ff16155b15610d69576001600760016101000a81548160ff021916908315150217905550600160009054906101000a900473ffffffffffffffffffffffffffffffffffffffff1673ffffffffffffffffffffffffffffffffffffffff166108fc6003549081150290604051600060405180830381858888f19350505050158015610cf5573d6000803e3d6000fd5b50600160009054906101000a900473ffffffffffffffffffffffffffffffffffffffff1673ffffffffffffffffffffffffffffffffffffffff167fa09244c122a83074363635dc89ce0098166c2f74827960ff64a7c8e6ad1c57a2600354604051610d609190611471565b60405180910390a25b50565b600a60009054906101000a900460ff1681565b60065481565b600160009054906101000a900473ffffffffffffffffffffffffffffffffffffffff1673ffffffffffffffffffffffffffffffffffffffff163373ffffffffffffffffffffffffffffffffffffffff1614610e15576040517f08c379a0000000000000000000000000000000000000000000000000000000008152600401610e0c90611dd5565b60405180910390fd5b600760009054906101000a900460ff16610e64576040517f08c379a0000000000000000000000000000000000000000000000000000000008152600401610e5b90611833565b60405180910390fd5b600a60009054906101000a900460ff1615610eb4576040517f08c379a0000000000000000000000000000000000000000000000000000000008152600401610eab9061189f565b60405180910390fd5b6002543414610ef8576040517f08c379a0000000000000000000000000000000000000000000000000000000008152600401610eef90611e41565b60405180910390fd5b600554421115610f3d576040517f08c379a0000000000000000000000000000000000000000000000000000000008152600401610f3490611ead565b60405180910390fd5b3460086000828254610f4f9190611efc565b925050819055504260098190555060008054906101000a900473ffffffffffffffffffffffffffffffffffffffff1673ffffffffffffffffffffffffffffffffffffffff166108fc349081150290604051600060405180830381858888f19350505050158015610fc3573d6000803e3d6000fd5b50600160009054906101000a900473ffffffffffffffffffffffffffffffffffffffff1673ffffffffffffffffffffffffffffffffffffffff167f33d9ffd7947b17c37c9905165c01183282058f1cb2252c9be395887d078572ad344260405161102e929190611f30565b60405180910390a2565b600160009054906101000a900473ffffffffffffffffffffffffffffffffffffffff1681565b60008060008060008060008060008054906101000a900473ffffffffffffffffffffffffffffffffffffffff16600160009054906101000a900473ffffffffffffffffffffffffffffffffffffffff16600254600354600554600760009054906101000a900460ff16600854600a60009054906101000a900460ff16975097509750975097509750975097509091929394959697565b600160009054906101000a900473ffffffffffffffffffffffffffffffffffffffff1673ffffffffffffffffffffffffffffffffffffffff163373ffffffffffffffffffffffffffffffffffffffff1614611184576040517f08c379a000000000000000000000000000000000000000000000000000000000815260040161117b90611dd5565b60405180910390fd5b600760009054906101000a900460ff16156111d4576040517f08c379a00000000000000000000000000000000000000000000000000000000081526004016111cb90611fa5565b60405180910390fd5b6003543414611218576040517f08c379a000000000000000000000000000000000000000000000000000000000815260040161120f90612011565b60405180910390fd5b6001600760006101000a81548160ff021916908315150217905550600160009054906101000a900473ffffffffffffffffffffffffffffffffffffffff1673ffffffffffffffffffffffffffffffffffffffff1660008054906101000a900473ffffffffffffffffffffffffffffffffffffffff1673ffffffffffffffffffffffffffffffffffffffff167fd1a51891ceafa0668033678921f7ff3c63a6d6d2f66c57b5b4f2ced4779b38f66002546003546040516112d8929190611f30565b60405180910390a3565b60008054906101000a900473ffffffffffffffffffffffffffffffffffffffff1681565b60095481565b60085481565b600c805461131f906117b6565b80601f016020809104026020016040519081016040528092919081815260200182805461134b906117b6565b80156113985780601f1061136d57610100808354040283529160200191611398565b820191906000526020600020905b81548152906001019060200180831161137b57829003601f168201915b505050505081565b60025481565b600081519050919050565b600082825260208201905092915050565b60005b838110156113e05780820151818401526020810190506113c5565b60008484015250505050565b6000601f19601f8301169050919050565b6000611408826113a6565b61141281856113b1565b93506114228185602086016113c2565b61142b816113ec565b840191505092915050565b6000602082019050818103600083015261145081846113fd565b905092915050565b6000819050919050565b61146b81611458565b82525050565b60006020820190506114866000830184611462565b92915050565b60008115159050919050565b6114a18161148c565b82525050565b60006020820190506114bc6000830184611498565b92915050565b6000604051905090565b600080fd5b600080fd5b600080fd5b600080fd5b7f4e487b7100000000000000000000000000000000000000000000000000000000600052604160045260246000fd5b611518826113ec565b810181811067ffffffffffffffff82111715611537576115366114e0565b5b80604052505050565b600061154a6114c2565b9050611556828261150f565b919050565b600067ffffffffffffffff821115611576576115756114e0565b5b61157f826113ec565b9050602081019050919050565b82818337600083830152505050565b60006115ae6115a98461155b565b611540565b9050828152602081018484840111156115ca576115c96114db565b5b6115d584828561158c565b509392505050565b600082601f8301126115f2576115f16114d6565b5b813561160284826020860161159b565b91505092915050565b600060208284031215611621576116206114cc565b5b600082013567ffffffffffffffff81111561163f5761163e6114d1565b5b61164b848285016115dd565b91505092915050565b61165d8161148c565b811461166857600080fd5b50565b60008135905061167a81611654565b92915050565b600060208284031215611696576116956114cc565b5b60006116a48482850161166b565b91505092915050565b600073ffffffffffffffffffffffffffffffffffffffff82169050919050565b60006116d8826116ad565b9050919050565b6116e8816116cd565b82525050565b600060208201905061170360008301846116df565b92915050565b60006101008201905061171f600083018b6116df565b61172c602083018a6116df565b6117396040830189611462565b6117466060830188611462565b6117536080830187611462565b61176060a0830186611498565b61176d60c0830185611462565b61177a60e0830184611498565b9998505050505050505050565b7f4e487b7100000000000000000000000000000000000000000000000000000000600052602260045260246000fd5b600060028204905060018216806117ce57607f821691505b6020821081036117e1576117e0611787565b5b50919050565b7f41677265656d656e74206e6f7420616374697665000000000000000000000000600082015250565b600061181d6014836113b1565b9150611828826117e7565b602082019050919050565b6000602082019050818103600083015261184c81611810565b9050919050565b7f5265736f6c766520646973707574652066697273740000000000000000000000600082015250565b60006118896015836113b1565b915061189482611853565b602082019050919050565b600060208201905081810360008301526118b88161187c565b9050919050565b7f4e6f7420617574686f72697a6564000000000000000000000000000000000000600082015250565b60006118f5600e836113b1565b9150611900826118bf565b602082019050919050565b60006020820190508181036000830152611924816118e8565b9050919050565b7f41677265656d656e7420706572696f64206e6f7420656e646564000000000000600082015250565b6000611961601a836113b1565b915061196c8261192b565b602082019050919050565b6000602082019050818103600083015261199081611954565b9050919050565b7f4469737075746520616c72656164792061637469766500000000000000000000600082015250565b60006119cd6016836113b1565b91506119d882611997565b602082019050919050565b600060208201905081810360008301526119fc816119c0565b9050919050565b60008190508160005260206000209050919050565b60006020601f8301049050919050565b600082821b905092915050565b600060088302611a657fffffffffffffffffffffffffffffffffffffffffffffffffffffffffffffffff82611a28565b611a6f8683611a28565b95508019841693508086168417925050509392505050565b6000819050919050565b6000611aac611aa7611aa284611458565b611a87565b611458565b9050919050565b6000819050919050565b611ac683611a91565b611ada611ad282611ab3565b848454611a35565b825550505050565b600090565b611aef611ae2565b611afa818484611abd565b505050565b5b81811015611b1e57611b13600082611ae7565b600181019050611b00565b5050565b601f821115611b6357611b3481611a03565b611b3d84611a18565b81016020851015611b4c578190505b611b60611b5885611a18565b830182611aff565b50505b505050565b600082821c905092915050565b6000611b8660001984600802611b68565b1980831691505092915050565b6000611b9f8383611b75565b9150826002028217905092915050565b611bb8826113a6565b67ffffffffffffffff811115611bd157611bd06114e0565b5b611bdb82546117b6565b611be6828285611b22565b600060209050601f831160018114611c195760008415611c07578287015190505b611c118582611b93565b865550611c79565b601f198416611c2786611a03565b60005b82811015611c4f57848901518255600182019150602085019450602081019050611c2a565b86831015611c6c5784890151611c68601f891682611b75565b8355505b6001600288020188555050505b505050505050565b60006040820190508181036000830152611c9b81856113fd565b9050611caa6020830184611462565b9392505050565b7f4f6e6c79206c616e646c6f726400000000000000000000000000000000000000600082015250565b6000611ce7600d836113b1565b9150611cf282611cb1565b602082019050919050565b60006020820190508181036000830152611d1681611cda565b9050919050565b7f4e6f206163746976652064697370757465000000000000000000000000000000600082015250565b6000611d536011836113b1565b9150611d5e82611d1d565b602082019050919050565b60006020820190508181036000830152611d8281611d46565b9050919050565b7f4f6e6c792074656e616e74000000000000000000000000000000000000000000600082015250565b6000611dbf600b836113b1565b9150611dca82611d89565b602082019050919050565b60006020820190508181036000830152611dee81611db2565b9050919050565b7f57726f6e672072656e7420616d6f756e74000000000000000000000000000000600082015250565b6000611e2b6011836113b1565b9150611e3682611df5565b602082019050919050565b60006020820190508181036000830152611e5a81611e1e565b9050919050565b7f41677265656d656e742065787069726564000000000000000000000000000000600082015250565b6000611e976011836113b1565b9150611ea282611e61565b602082019050919050565b60006020820190508181036000830152611ec681611e8a565b9050919050565b7f4e487b7100000000000000000000000000000000000000000000000000000000600052601160045260246000fd5b6000611f0782611458565b9150611f1283611458565b9250828201905080821115611f2a57611f29611ecd565b5b92915050565b6000604082019050611f456000830185611462565b611f526020830184611462565b9392505050565b7f416c726561647920616374697665000000000000000000000000000000000000600082015250565b6000611f8f600e836113b1565b9150611f9a82611f59565b602082019050919050565b60006020820190508181036000830152611fbe81611f82565b9050919050565b7f57726f6e67206465706f73697420616d6f756e74000000000000000000000000600082015250565b6000611ffb6014836113b1565b915061200682611fc5565b602082019050919050565b6000602082019050818103600083015261202a81611fee565b905091905056fea26469706673582212201ede804640e73883a498ba2bf5ac1d86a38f91f08b9b911e3d902b86bff9e16464736f6c63430008180033a2646970667358221220e789d98c1984c5921a35682d67dc9131d23a3696ba565479cca0267f95b6d9a064736f6c63430008180033",
  "linkReferences": {},
  "deployedLinkReferences": {}
}