{
  "_format": "hh-sol-artifact-1",
  "contractName": "RentalAgreement",
  "sourceName": "contracts/RentalAgreement.sol",
  "abi": [
    {
      "inputs": [
        {
          "internalType": "address",
          "name": "_tenant",
          "type": "address"
        },
        {
          "internalType": "uint256",
          "name": "_rentAmount",
          "type": "uint256"
        },
        {
          "internalType": "uint256",
          "name": "_depositAmount",
          "type": "uint256"
        },
        {
          "internalType": "uint256",
          "name": "_agreementDurationDays",
          "type": "uint256"
        },
        {
          "internalType": "uint256",
          "name": "_rentDueDay",
          "type": "uint256"
        },
        {
          "internalType": "string",
          "name": "_propertyId",
          "type": "string"
        },
        {
          "internalType": "string",
          "name": "_propertyTitle",
          "type": "string"
        }
      ],
      "stateMutability": "nonpayable",
      "type": "constructor"
    },
    {
      "anonymous": false,
      "inputs": [
        {
          "indexed": true,
          "internalType": "address",
          "name": "landlord",
          "type": "address"
        },
        {
          "indexed": true,
          "internalType": "address",
          "name": "tenant",
          "type": "address"
        },
        {
          "indexed": false,
          "internalType": "uint256",
          "name": "rentAmount",
          "type": "uint256"
        },
        {
          "indexed": false,
          "internalType": "uint256",
          "name": "depositAmount",
          "type": "uint256"
        }
      ],
      "name": "AgreementSigned",
      "type": "event"
    },
    {
      "anonymous": false,
      "inputs": [
        {
          "indexed": true,
          "internalType": "address",
          "name": "terminatedBy",
          "type": "address"
        },
        {
          "indexed": false,
          "internalType": "uint256",
          "name": "timestamp",
          "type": "uint256"
        }
      ],
      "name": "AgreementTerminated",
      "type": "event"
    },
    {
      "anonymous": false,
      "inputs": [
        {
          "indexed": true,
          "internalType": "address",
          "name": "tenant",
          "type": "address"
        },
        {
          "indexed": false,
          "internalType": "uint256",
          "name": "amount",
          "type": "uint256"
        }
      ],
      "name": "DepositReturned",
      "type": "event"
    },
    {
      "anonymous": false,
      "inputs": [
        {
          "indexed": true,
          "internalType": "address",
          "name": "raisedBy",
          "type": "address"
        },
        {
          "indexed": false,
          "internalType": "string",
          "name": "reason",
          "type": "string"
        },
        {
          "indexed": false,
          "internalType": "uint256",
          "name": "timestamp",
          "type": "uint256"
        }
      ],
      "name": "DisputeRaised",
      "type": "event"
    },
    {
      "anonymous": false,
      "inputs": [
        {
          "indexed": true,
          "internalType": "address",
          "name": "tenant",
          "type": "address"
        },
        {
          "indexed": false,
          "internalType": "uint256",
          "name": "amount",
          "type": "uint256"
        },
        {
          "indexed": false,
          "internalType": "uint256",
          "name": "timestamp",
          "type": "uint256"
        }
      ],
      "name": "RentPaid",
      "type": "event"
    },
    {
      "inputs": [],
      "name": "agreementEnd",
      "outputs": [
        {
          "internalType": "uint256",
          "name": "",
          "type": "uint256"
        }
      ],
      "stateMutability": "view",
      "type": "function"
    },
    {
      "inputs": [],
      "name": "agreementStart",
      "outputs": [
        {
          "internalType": "uint256",
          "name": "",
          "type": "uint256"
        }
      ],
      "stateMutability": "view",
      "type": "function"
    },
    {
      "inputs": [],
      "name": "depositAmount",
      "outputs": [
        {
          "internalType": "uint256",
          "name": "",
          "type": "uint256"
        }
      ],
      "stateMutability": "view",
      "type": "function"
    },
    {
      "inputs": [],
      "name": "depositReturned",
      "outputs": [
        {
          "internalType": "bool",
          "name": "",
          "type": "bool"
        }
      ],
      "stateMutability": "view",
      "type": "function"
    },
    {
      "inputs": [],
      "name": "disputeActive",
      "outputs": [
        {
          "internalType": "bool",
          "name": "",
          "type": "bool"
        }
      ],
      "stateMutability": "view",
      "type": "function"
    },
    {
      "inputs": [],
      "name": "disputeReason",
      "outputs": [
        {
          "internalType": "string",
          "name": "",
          "type": "string"
        }
      ],
      "stateMutability": "view",
      "type": "function"
    },
    {
      "inputs": [],
      "name": "getAgreementDetails",
      "outputs": [
        {
          "internalType": "address",
          "name": "_landlord",
          "type": "address"
        },
        {
          "internalType": "address",
          "name": "_tenant",
          "type": "address"
        },
        {
          "internalType": "uint256",
          "name": "_rentAmount",
          "type": "uint256"
        },
        {
          "internalType": "uint256",
          "name": "_depositAmount",
          "type": "uint256"
        },
        {
          "internalType": "uint256",
          "name": "_agreementEnd",
          "type": "uint256"
        },
        {
          "internalType": "bool",
          "name": "_isActive",
          "type": "bool"
        },
        {
          "internalType": "uint256",
          "name": "_totalRentPaid",
          "type": "uint256"
        },
        {
          "internalType": "bool",
          "name": "_disputeActive",
          "type": "bool"
        }
      ],
      "stateMutability": "view",
      "type": "function"
    },
    {
      "inputs": [],
      "name": "getContractBalance",
      "outputs": [
        {
          "internalType": "uint256",
          "name": "",
          "type": "uint256"
        }
      ],
      "stateMutability": "view",
      "type": "function"
    },
    {
      "inputs": [],
      "name": "isActive",
      "outputs": [
        {
          "internalType": "bool",
          "name": "",
          "type": "bool"
        }
      ],
      "stateMutability": "view",
      "type": "function"
    },
    {
      "inputs": [],
      "name": "landlord",
      "outputs": [
        {
          "internalType": "address",
          "name": "",
          "type": "address"
        }
      ],
      "stateMutability": "view",
      "type": "function"
    },
    {
      "inputs": [],
      "name": "lastRentPaid",
      "outputs": [
        {
          "internalType": "uint256",
          "name": "",
          "type": "uint256"
        }
      ],
      "stateMutability": "view",
      "type": "function"
    },
    {
      "inputs": [],
      "name": "payRent",
      "outputs": [],
      "stateMutability": "payable",
      "type": "function"
    },
    {
      "inputs": [],
      "name": "propertyId",
      "outputs": [
        {
          "internalType": "string",
          "name": "",
          "type": "string"
        }
      ],
      "stateMutability": "view",
      "type": "function"
    },
    {
      "inputs": [],
      "name": "propertyTitle",
      "outputs": [
        {
          "internalType": "string",
          "name": "",
          "type": "string"
        }
      ],
      "stateMutability": "view",
      "type": "function"
    },
    {
      "inputs": [
        {
          "internalType": "string",
          "name": "_reason",
          "type": "string"
        }
      ],
      "name": "raiseDispute",
      "outputs": [],
      "stateMutability": "nonpayable",
      "type": "function"
    },
    {
      "inputs": [],
      "name": "rentAmount",
      "outputs": [
        {
          "internalType": "uint256",
          "name": "",
          "type": "uint256"
        }
      ],
      "stateMutability": "view",
      "type": "function"
    },
    {
      "inputs": [],
      "name": "rentDueDay",
      "outputs": [
        {
          "internalType": "uint256",
          "name": "",
          "type": "uint256"
        }
      ],
      "stateMutability": "view",
      "type": "function"
    },
    {
      "inputs": [
        {
          "internalType": "bool",
          "name": "_returnDeposit",
          "type": "bool"
        }
      ],
      "name": "resolveDispute",
      "outputs": [],
      "stateMutability": "nonpayable",
      "type": "function"
    },
    {
      "inputs": [],
      "name": "signAgreement",
      "outputs": [],
      "stateMutability": "payable",
      "type": "function"
    },
    {
      "inputs": [],
      "name": "tenant",
      "outputs": [
        {
          "internalType": "address",
          "name": "",
          "type": "address"
        }
      ],
      "stateMutability": "view",
      "type": "function"
    },
    {
      "inputs": [],
      "name": "terminateAgreement",
      "outputs": [],
      "stateMutability": "nonpayable",
      "type": "function"
    },
    {
      "inputs": [],
      "name": "totalRentPaid",
      "outputs": [
        {
          "internalType": "uint256",
          "name": "",
          "type": "uint256"
        }
      ],
      "stateMutability": "view",
      "type": "function"
    }
  ],
  "bytecode": "0x60806040523480156200001157600080fd5b5060405162002904380380620029048339818101604052810190620000379190620003bf565b336000806101000a81548173ffffffffffffffffffffffffffffffffffffffff021916908373ffffffffffffffffffffffffffffffffffffffff16021790555086600160006101000a81548173ffffffffffffffffffffffffffffffffffffffff021916908373ffffffffffffffffffffffffffffffffffffffff16021790555085600281905550846003819055504260048190555060008414620000ed576201518084620000e79190620004df565b620000f0565b603c5b42620000fd91906200052a565b6005819055508260068190555081600c90816200011b9190620007a6565b5080600d90816200012d9190620007a6565b506000600760006101000a81548160ff0219169083151502179055506000600760016101000a81548160ff0219169083151502179055506000600a60006101000a81548160ff021916908315150217905550505050505050506200088d565b6000604051905090565b600080fd5b600080fd5b600073ffffffffffffffffffffffffffffffffffffffff82169050919050565b6000620001cd82620001a0565b9050919050565b620001df81620001c0565b8114620001eb57600080fd5b50565b600081519050620001ff81620001d4565b92915050565b6000819050919050565b6200021a8162000205565b81146200022657600080fd5b50565b6000815190506200023a816200020f565b92915050565b600080fd5b600080fd5b6000601f19601f8301169050919050565b7f4e487b7100000000000000000000000000000000000000000000000000000000600052604160045260246000fd5b62000295826200024a565b810181811067ffffffffffffffff82111715620002b757620002b66200025b565b5b80604052505050565b6000620002cc6200018c565b9050620002da82826200028a565b919050565b600067ffffffffffffffff821115620002fd57620002fc6200025b565b5b62000308826200024a565b9050602081019050919050565b60005b838110156200033557808201518184015260208101905062000318565b60008484015250505050565b6000620003586200035284620002df565b620002c0565b90508281526020810184848401111562000377576200037662000245565b5b6200038484828562000315565b509392505050565b600082601f830112620003a457620003a362000240565b5b8151620003b684826020860162000341565b91505092915050565b600080600080600080600060e0888a031215620003e157620003e062000196565b5b6000620003f18a828b01620001ee565b9750506020620004048a828b0162000229565b9650506040620004178a828b0162000229565b95505060606200042a8a828b0162000229565b94505060806200043d8a828b0162000229565b93505060a088015167ffffffffffffffff8111156200046157620004606200019b565b5b6200046f8a828b016200038c565b92505060c088015167ffffffffffffffff8111156200049357620004926200019b565b5b620004a18a828b016200038c565b91505092959891949750929550565b7f4e487b7100000000000000000000000000000000000000000000000000000000600052601160045260246000fd5b6000620004ec8262000205565b9150620004f98362000205565b9250828202620005098162000205565b91508282048414831517620005235762000522620004b0565b5b5092915050565b6000620005378262000205565b9150620005448362000205565b92508282019050808211156200055f576200055e620004b0565b5b92915050565b600081519050919050565b7f4e487b7100000000000000000000000000000000000000000000000000000000600052602260045260246000fd5b60006002820490506001821680620005b857607f821691505b602082108103620005ce57620005cd62000570565b5b50919050565b60008190508160005260206000209050919050565b60006020601f8301049050919050565b600082821b905092915050565b600060088302620006387fffffffffffffffffffffffffffffffffffffffffffffffffffffffffffffffff82620005f9565b620006448683620005f9565b95508019841693508086168417925050509392505050565b6000819050919050565b600062000687620006816200067b8462000205565b6200065c565b62000205565b9050919050565b6000819050919050565b620006a38362000666565b620006bb620006b2826200068e565b84845462000606565b825550505050565b600090565b620006d2620006c3565b620006df81848462000698565b505050565b5b818110156200070757620006fb600082620006c8565b600181019050620006e5565b5050565b601f82111562000756576200072081620005d4565b6200072b84620005e9565b810160208510156200073b578190505b620007536200074a85620005e9565b830182620006e4565b50505b505050565b600082821c905092915050565b60006200077b600019846008026200075b565b1980831691505092915050565b600062000796838362000768565b9150826002028217905092915050565b620007b18262000565565b67ffffffffffffffff811115620007cd57620007cc6200025b565b5b620007d982546200059f565b620007e68282856200070b565b600060209050601f8311600181146200081e576000841562000809578287015190505b62000815858262000788565b86555062000885565b601f1984166200082e86620005d4565b60005b82811015620008585784890151825560018201915060208501945060208101905062000831565b8683101562000878578489015162000874601f89168262000768565b8355505b6001600288020188555050505b505050505050565b612067806200089d6000396000f3fe6080604052600436106101355760003560e01c806392c5466d116100ab578063c939329b1161006f578063c939329b146103b8578063dc1997ea146103c2578063e1d703e4146103ed578063ee0850e414610418578063ee7a3b8e14610443578063f8ef1e131461046e57610135565b806392c5466d146102fb5780639d3c7dc114610326578063a709c4fe14610351578063adf077911461035b578063b4bd77841461038657610135565b80634200dd71116100fd5780634200dd71146102115780635724ed88146102285780636f9fb98a14610253578063725a3b4b1461027e5780637bf6c104146102a757806389e1e82a146102d257610135565b8063031f1d181461013a578063073fcefc146101655780630c5b3eb11461019057806322f3e2d4146101bb578063419759f5146101e6575b600080fd5b34801561014657600080fd5b5061014f610499565b60405161015c9190611436565b60405180910390f35b34801561017157600080fd5b5061017a610527565b6040516101879190611471565b60405180910390f35b34801561019c57600080fd5b506101a561052d565b6040516101b291906114a7565b60405180910390f35b3480156101c757600080fd5b506101d0610540565b6040516101dd91906114a7565b60405180910390f35b3480156101f257600080fd5b506101fb610553565b6040516102089190611471565b60405180910390f35b34801561021d57600080fd5b50610226610559565b005b34801561023457600080fd5b5061023d61089b565b60405161024a9190611471565b60405180910390f35b34801561025f57600080fd5b506102686108a1565b6040516102759190611471565b60405180910390f35b34801561028a57600080fd5b506102a560048036038101906102a0919061160b565b6108a9565b005b3480156102b357600080fd5b506102bc610aac565b6040516102c99190611436565b60405180910390f35b3480156102de57600080fd5b506102f960048036038101906102f49190611680565b610b3a565b005b34801561030757600080fd5b50610310610d6c565b60405161031d91906114a7565b60405180910390f35b34801561033257600080fd5b5061033b610d7f565b6040516103489190611471565b60405180910390f35b610359610d85565b005b34801561036757600080fd5b50610370611038565b60405161037d91906116ee565b60405180910390f35b34801561039257600080fd5b5061039b61105e565b6040516103af989796959493929190611709565b60405180910390f35b6103c06110f4565b005b3480156103ce57600080fd5b506103d76112e2565b6040516103e491906116ee565b60405180910390f35b3480156103f957600080fd5b50610402611306565b60405161040f9190611471565b60405180910390f35b34801561042457600080fd5b5061042d61130c565b60405161043a9190611471565b60405180910390f35b34801561044f57600080fd5b50610458611312565b6040516104659190611436565b60405180910390f35b34801561047a57600080fd5b506104836113a0565b6040516104909190611471565b60405180910390f35b600d80546104a6906117b6565b80601f01602080910402602001604051908101604052809291908181526020018280546104d2906117b6565b801561051f5780601f106104f45761010080835404028352916020019161051f565b820191906000526020600020905b81548152906001019060200180831161050257829003601f168201915b505050505081565b60045481565b600760019054906101000a900460ff1681565b600760009054906101000a900460ff1681565b60035481565b600760009054906101000a900460ff166105a8576040517f08c379a000000000000000000000000000000000000000000000000000000000815260040161059f90611833565b60405180910390fd5b600a60009054906101000a900460ff16156105f8576040517f08c379a00000000000000000000000000000000000000000000000000000000081526004016105ef9061189f565b60405180910390fd5b60008054906101000a900473ffffffffffffffffffffffffffffffffffffffff1673ffffffffffffffffffffffffffffffffffffffff163373ffffffffffffffffffffffffffffffffffffffff16148061069f5750600160009054906101000a900473ffffffffffffffffffffffffffffffffffffffff1673ffffffffffffffffffffffffffffffffffffffff163373ffffffffffffffffffffffffffffffffffffffff16145b6106de576040517f08c379a00000000000000000000000000000000000000000000000000000000081526004016106d59061190b565b60405180910390fd5b600554421015610723576040517f08c379a000000000000000000000000000000000000000000000000000000000815260040161071a90611977565b60405180910390fd5b6000600760006101000a81548160ff021916908315150217905550600760019054906101000a900460ff1661084b576001600760016101000a81548160ff021916908315150217905550600160009054906101000a900473ffffffffffffffffffffffffffffffffffffffff1673ffffffffffffffffffffffffffffffffffffffff166108fc6003549081150290604051600060405180830381858888f193505050501580156107d7573d6000803e3d6000fd5b50600160009054906101000a900473ffffffffffffffffffffffffffffffffffffffff1673ffffffffffffffffffffffffffffffffffffffff167fa09244c122a83074363635dc89ce0098166c2f74827960ff64a7c8e6ad1c57a26003546040516108429190611471565b60405180910390a25b3373ffffffffffffffffffffffffffffffffffffffff167fbcc1fc93b3c0fc48ab621cac6b87c3cf66f0272e74b0b88f8bb5adb3521ade33426040516108919190611471565b60405180910390a2565b60055481565b600047905090565b600760009054906101000a900460ff166108f8576040517f08c379a00000000000000000000000000000000000000000000000000000000081526004016108ef90611833565b60405180910390fd5b60008054906101000a900473ffffffffffffffffffffffffffffffffffffffff1673ffffffffffffffffffffffffffffffffffffffff163373ffffffffffffffffffffffffffffffffffffffff16148061099f5750600160009054906101000a900473ffffffffffffffffffffffffffffffffffffffff1673ffffffffffffffffffffffffffffffffffffffff163373ffffffffffffffffffffffffffffffffffffffff16145b6109de576040517f08c379a00000000000000000000000000000000000000000000000000000000081526004016109d59061190b565b60405180910390fd5b600a60009054906101000a900460ff1615610a2e576040517f08c379a0000000000000000000000000000000000000000000000000000000008152600401610a25906119e3565b60405180910390fd5b6001600a60006101000a81548160ff02191690831515021790555080600b9081610a589190611baf565b503373ffffffffffffffffffffffffffffffffffffffff167fd4882c6b71dfbb8df0a01fa4cd97676f243a56dd525df6b891b2e1700e514e898242604051610aa1929190611c81565b60405180910390a250565b600b8054610ab9906117b6565b80601f0160208091040260200160405190810160405280929190818152602001828054610ae5906117b6565b8015610b325780601f10610b0757610100808354040283529160200191610b32565b820191906000526020600020905b815481529060010190602001808311610b1557829003601f168201915b505050505081565b60008054906101000a900473ffffffffffffffffffffffffffffffffffffffff1673ffffffffffffffffffffffffffffffffffffffff163373ffffffffffffffffffffffffffffffffffffffff1614610bc8576040517f08c379a0000000000000000000000000000000000000000000000000000000008152600401610bbf90611cfd565b60405180910390fd5b600a60009054906101000a900460ff16610c17576040517f08c379a0000000000000000000000000000000000000000000000000000000008152600401610c0e90611d69565b60405180910390fd5b6000600a60006101000a81548160ff02191690831515021790555060405180602001604052806000815250600b9081610c509190611baf565b50808015610c6b5750600760019054906101000a900460ff16155b15610d69576001600760016101000a81548160ff021916908315150217905550600160009054906101000a900473ffffffffffffffffffffffffffffffffffffffff1673ffffffffffffffffffffffffffffffffffffffff166108fc6003549081150290604051600060405180830381858888f19350505050158015610cf5573d6000803e3d6000fd5b50600160009054906101000a900473ffffffffffffffffffffffffffffffffffffffff1673ffffffffffffffffffffffffffffffffffffffff167fa09244c122a83074363635dc89ce0098166c2f74827960ff64a7c8e6ad1c57a2600354604051610d609190611471565b60405180910390a25b50565b600a60009054906101000a900460ff1681565b60065481565b600160009054906101000a900473ffffffffffffffffffffffffffffffffffffffff1673ffffffffffffffffffffffffffffffffffffffff163373ffffffffffffffffffffffffffffffffffffffff1614610e15576040517f08c379a0000000000000000000000000000000000000000000000000000000008152600401610e0c90611dd5565b60405180910390fd5b600760009054906101000a900460ff16610e64576040517f08c379a0000000000000000000000000000000000000000000000000000000008152600401610e5b90611833565b60405180910390fd5b600a60009054906101000a900460ff1615610eb4576040517f08c379a0000000000000000000000000000000000000000000000000000000008152600401610eab9061189f565b60405180910390fd5b6002543414610ef8576040517f08c379a0000000000000000000000000000000000000000000000000000000008152600401610eef90611e41565b60405180910390fd5b600554421115610f3d576040517f08c379a0000000000000000000000000000000000000000000000000000000008152600401610f3490611ead565b60405180910390fd5b3460086000828254610f4f9190611efc565b925050819055504260098190555060008054906101000a900473ffffffffffffffffffffffffffffffffffffffff1673ffffffffffffffffffffffffffffffffffffffff166108fc349081150290604051600060405180830381858888f19350505050158015610fc3573d6000803e3d6000fd5b50600160009054906101000a900473ffffffffffffffffffffffffffffffffffffffff1673ffffffffffffffffffffffffffffffffffffffff167f33d9ffd7947b17c37c9905165c01183282058f1cb2252c9be395887d078572ad344260405161102e929190611f30565b60405180910390a2565b600160009054906101000a900473ffffffffffffffffffffffffffffffffffffffff1681565b60008060008060008060008060008054906101000a900473ffffffffffffffffffffffffffffffffffffffff16600160009054906101000a900473ffffffffffffffffffffffffffffffffffffffff16600254600354600554600760009054906101000a900460ff16600854600a60009054906101000a900460ff16975097509750975097509750975097509091929394959697565b600160009054906101000a900473ffffffffffffffffffffffffffffffffffffffff1673ffffffffffffffffffffffffffffffffffffffff163373ffffffffffffffffffffffffffffffffffffffff1614611184576040517f08c379a000000000000000000000000000000000000000000000000000000000815260040161117b90611dd5565b60405180910390fd5b600760009054906101000a900460ff16156111d4576040517f08c379a00000000000000000000000000000000000000000000000000000000081526004016111cb90611fa5565b60405180910390fd5b6003543414611218576040517f08c379a000000000000000000000000000000000000000000000000000000000815260040161120f90612011565b60405180910390fd5b6001600760006101000a81548160ff021916908315150217905550600160009054906101000a900473ffffffffffffffffffffffffffffffffffffffff1673ffffffffffffffffffffffffffffffffffffffff1660008054906101000a900473ffffffffffffffffffffffffffffffffffffffff1673ffffffffffffffffffffffffffffffffffffffff167fd1a51891ceafa0668033678921f7ff3c63a6d6d2f66c57b5b4f2ced4779b38f66002546003546040516112d8929190611f30565b60405180910390a3565b60008054906101000a900473ffffffffffffffffffffffffffffffffffffffff1681565b60095481565b60085481565b600c805461131f906117b6565b80601f016020809104026020016040519081016040528092919081815260200182805461134b906117b6565b80156113985780601f1061136d57610100808354040283529160200191611398565b820191906000526020600020905b81548152906001019060200180831161137b57829003601f168201915b505050505081565b60025481565b600081519050919050565b600082825260208201905092915050565b60005b838110156113e05780820151818401526020810190506113c5565b60008484015250505050565b6000601f19601f8301169050919050565b6000611408826113a6565b61141281856113b1565b93506114228185602086016113c2565b61142b816113ec565b840191505092915050565b6000602082019050818103600083015261145081846113fd565b905092915050565b6000819050919050565b61146b81611458565b82525050565b60006020820190506114866000830184611462565b92915050565b60008115159050919050565b6114a18161148c565b82525050565b60006020820190506114bc6000830184611498565b92915050565b6000604051905090565b600080fd5b600080fd5b600080fd5b600080fd5b7f4e487b7100000000000000000000000000000000000000000000000000000000600052604160045260246000fd5b611518826113ec565b810181811067ffffffffffffffff82111715611537576115366114e0565b5b80604052505050565b600061154a6114c2565b9050611556828261150f565b919050565b600067ffffffffffffffff821115611576576115756114e0565b5b61157f826113ec565b9050602081019050919050565b82818337600083830152505050565b60006115ae6115a98461155b565b611540565b9050828152602081018484840111156115ca576115c96114db565b5b6115d584828561158c565b509392505050565b600082601f8301126115f2576115f16114d6565b5b813561160284826020860161159b565b91505092915050565b600060208284031215611621576116206114cc565b5b600082013567ffffffffffffffff81111561163f5761163e6114d1565b5b61164b848285016115dd565b91505092915050565b61165d8161148c565b811461166857600080fd5b50565b60008135905061167a81611654565b92915050565b600060208284031215611696576116956114cc565b5b60006116a48482850161166b565b91505092915050565b600073ffffffffffffffffffffffffffffffffffffffff82169050919050565b60006116d8826116ad565b9050919050565b6116e8816116cd565b82525050565b600060208201905061170360008301846116df565b92915050565b60006101008201905061171f600083018b6116df565b61172c602083018a6116df565b6117396040830189611462565b6117466060830188611462565b6117536080830187611462565b61176060a0830186611498565b61176d60c0830185611462565b61177a60e0830184611498565b9998505050505050505050565b7f4e487b7100000000000000000000000000000000000000000000000000000000600052602260045260246000fd5b600060028204905060018216806117ce57607f821691505b6020821081036117e1576117e0611787565b5b50919050565b7f41677265656d656e74206e6f7420616374697665000000000000000000000000600082015250565b600061181d6014836113b1565b9150611828826117e7565b602082019050919050565b6000602082019050818103600083015261184c81611810565b9050919050565b7f5265736f6c766520646973707574652066697273740000000000000000000000600082015250565b60006118896015836113b1565b915061189482611853565b602082019050919050565b600060208201905081810360008301526118b88161187c565b9050919050565b7f4e6f7420617574686f72697a6564000000000000000000000000000000000000600082015250565b60006118f5600e836113b1565b9150611900826118bf565b602082019050919050565b60006020820190508181036000830152611924816118e8565b9050919050565b7f41677265656d656e7420706572696f64206e6f7420656e646564000000000000600082015250565b6000611961601a836113b1565b915061196c8261192b565b602082019050919050565b6000602082019050818103600083015261199081611954565b9050919050565b7f4469737075746520616c72656164792061637469766500000000000000000000600082015250565b60006119cd6016836113b1565b91506119d882611997565b602082019050919050565b600060208201905081810360008301526119fc816119c0565b9050919050565b60008190508160005260206000209050919050565b60006020601f8301049050919050565b600082821b905092915050565b600060088302611a657fffffffffffffffffffffffffffffffffffffffffffffffffffffffffffffffff82611a28565b611a6f8683611a28565b95508019841693508086168417925050509392505050565b6000819050919050565b6000611aac611aa7611aa284611458565b611a87565b611458565b9050919050565b6000819050919050565b611ac683611a91565b611ada611ad282611ab3565b848454611a35565b825550505050565b600090565b611aef611ae2565b611afa818484611abd565b505050565b5b81811015611b1e57611b13600082611ae7565b600181019050611b00565b5050565b601f821115611b6357611b3481611a03565b611b3d84611a18565b81016020851015611b4c578190505b611b60611b5885611a18565b830182611aff565b50505b505050565b600082821c905092915050565b6000611b8660001984600802611b68565b1980831691505092915050565b6000611b9f8383611b75565b9150826002028217905092915050565b611bb8826113a6565b67ffffffffffffffff811115611bd157611bd06114e0565b5b611bdb82546117b6565b611be6828285611b22565b600060209050601f831160018114611c195760008415611c07578287015190505b611c118582611b93565b865550611c79565b601f198416611c2786611a03565b60005b82811015611c4f57848901518255600182019150602085019450602081019050611c2a565b86831015611c6c5784890151611c68601f891682611b75565b8355505b6001600288020188555050505b505050505050565b60006040820190508181036000830152611c9b81856113fd565b9050611caa6020830184611462565b9392505050565b7f4f6e6c79206c616e646c6f726400000000000000000000000000000000000000600082015250565b6000611ce7600d836113b1565b9150611cf282611cb1565b602082019050919050565b60006020820190508181036000830152611d1681611cda565b9050919050565b7f4e6f206163746976652064697370757465000000000000000000000000000000600082015250565b6000611d536011836113b1565b9150611d5e82611d1d565b602082019050919050565b60006020820190508181036000830152611d8281611d46565b9050919050565b7f4f6e6c792074656e616e74000000000000000000000000000000000000000000600082015250565b6000611dbf600b836113b1565b9150611dca82611d89565b602082019050919050565b60006020820190508181036000830152611dee81611db2565b9050919050565b7f57726f6e672072656e7420616d6f756e74000000000000000000000000000000600082015250565b6000611e2b6011836113b1565b9150611e3682611df5565b602082019050919050565b60006020820190508181036000830152611e5a81611e1e565b9050919050565b7f41677265656d656e742065787069726564000000000000000000000000000000600082015250565b6000611e976011836113b1565b9150611ea282611e61565b602082019050919050565b60006020820190508181036000830152611ec681611e8a565b9050919050565b7f4e487b7100000000000000000000000000000000000000000000000000000000600052601160045260246000fd5b6000611f0782611458565b9150611f1283611458565b9250828201905080821115611f2a57611f29611ecd565b5b92915050565b6000604082019050611f456000830185611462565b611f526020830184611462565b9392505050565b7f416c726561647920616374697665000000000000000000000000000000000000600082015250565b6000611f8f600e836113b1565b9150611f9a82611f59565b602082019050919050565b60006020820190508181036000830152611fbe81611f82565b9050919050565b7f57726f6e67206465706f73697420616d6f756e74000000000000000000000000600082015250565b6000611ffb6014836113b1565b915061200682611fc5565b602082019050919050565b6000602082019050818103600083015261202a81611fee565b905091905056fea26469706673582212208c0f7c69f75632dca4808a9c3965e13b0621d3cc61234a9c6f80596c4b996e1e64736f6c63430008180033",
  "linkReferences": {},
  "deployedLinkReferences": {}
}